{
  "address": "0x5FbDB2315678afecb367f032d93F642f64180aa3",
  "abi": [
    {
      "inputs": [],
      "stateMutability": "nonpayable",
      "type": "constructor"
    },
    {
      "anonymous": false,
      "inputs": [
        {
          "indexed": true,
          "internalType": "address",
          "name": "owner",
          "type": "address"
        },
        {
          "indexed": true,
          "internalType": "address",
          "name": "approved",
          "type": "address"
        },
        {
          "indexed": true,
          "internalType": "uint256",
          "name": "tokenId",
          "type": "uint256"
        }
      ],
      "name": "Approval",
      "type": "event"
    },
    {
      "anonymous": false,
      "inputs": [
        {
          "indexed": true,
          "internalType": "address",
          "name": "owner",
          "type": "address"
        },
        {
          "indexed": true,
          "internalType": "address",
          "name": "operator",
          "type": "address"
        },
        {
          "indexed": false,
          "internalType": "bool",
          "name": "approved",
          "type": "bool"
        }
      ],
      "name": "ApprovalForAll",
      "type": "event"
    },
    {
      "anonymous": false,
      "inputs": [
        {
          "indexed": true,
          "internalType": "address",
          "name": "previousOwner",
          "type": "address"
        },
        {
          "indexed": true,
          "internalType": "address",
          "name": "newOwner",
          "type": "address"
        }
      ],
      "name": "OwnershipTransferred",
      "type": "event"
    },
    {
      "anonymous": false,
      "inputs": [
        {
          "indexed": true,
          "internalType": "address",
          "name": "from",
          "type": "address"
        },
        {
          "indexed": true,
          "internalType": "address",
          "name": "to",
          "type": "address"
        },
        {
          "indexed": true,
          "internalType": "uint256",
          "name": "tokenId",
          "type": "uint256"
        }
      ],
      "name": "Transfer",
      "type": "event"
    },
    {
      "inputs": [
        {
          "internalType": "address",
          "name": "to",
          "type": "address"
        },
        {
          "internalType": "uint256",
          "name": "tokenId",
          "type": "uint256"
        }
      ],
      "name": "approve",
      "outputs": [],
      "stateMutability": "nonpayable",
      "type": "function"
    },
    {
      "inputs": [
        {
          "internalType": "address",
          "name": "owner",
          "type": "address"
        }
      ],
      "name": "balanceOf",
      "outputs": [
        {
          "internalType": "uint256",
          "name": "",
          "type": "uint256"
        }
      ],
      "stateMutability": "view",
      "type": "function"
    },
    {
      "inputs": [
        {
          "internalType": "uint256",
          "name": "tokenId",
          "type": "uint256"
        }
      ],
      "name": "getApproved",
      "outputs": [
        {
          "internalType": "address",
          "name": "",
          "type": "address"
        }
      ],
      "stateMutability": "view",
      "type": "function"
    },
    {
      "inputs": [],
      "name": "getObjects",
      "outputs": [
        {
          "components": [
            {
              "internalType": "string",
              "name": "name",
              "type": "string"
            },
            {
              "internalType": "uint256",
              "name": "w",
              "type": "uint256"
            },
            {
              "internalType": "uint256",
              "name": "h",
              "type": "uint256"
            },
            {
              "internalType": "uint256",
              "name": "d",
              "type": "uint256"
            },
            {
              "internalType": "uint256",
              "name": "x",
              "type": "uint256"
            },
            {
              "internalType": "uint256",
              "name": "y",
              "type": "uint256"
            },
            {
              "internalType": "uint256",
              "name": "z",
              "type": "uint256"
            }
          ],
          "internalType": "struct metaverse.object[]",
          "name": "",
          "type": "tuple[]"
        }
      ],
      "stateMutability": "view",
      "type": "function"
    },
    {
      "inputs": [],
      "name": "getOwnerObjects",
      "outputs": [
        {
          "components": [
            {
              "internalType": "string",
              "name": "name",
              "type": "string"
            },
            {
              "internalType": "uint256",
              "name": "w",
              "type": "uint256"
            },
            {
              "internalType": "uint256",
              "name": "h",
              "type": "uint256"
            },
            {
              "internalType": "uint256",
              "name": "d",
              "type": "uint256"
            },
            {
              "internalType": "uint256",
              "name": "x",
              "type": "uint256"
            },
            {
              "internalType": "uint256",
              "name": "y",
              "type": "uint256"
            },
            {
              "internalType": "uint256",
              "name": "z",
              "type": "uint256"
            }
          ],
          "internalType": "struct metaverse.object[]",
          "name": "",
          "type": "tuple[]"
        }
      ],
      "stateMutability": "view",
      "type": "function"
    },
    {
      "inputs": [
        {
          "internalType": "address",
          "name": "owner",
          "type": "address"
        },
        {
          "internalType": "address",
          "name": "operator",
          "type": "address"
        }
      ],
      "name": "isApprovedForAll",
      "outputs": [
        {
          "internalType": "bool",
          "name": "",
          "type": "bool"
        }
      ],
      "stateMutability": "view",
      "type": "function"
    },
    {
      "inputs": [],
      "name": "maxSupply",
      "outputs": [
        {
          "internalType": "uint256",
          "name": "",
          "type": "uint256"
        }
      ],
      "stateMutability": "view",
      "type": "function"
    },
    {
      "inputs": [
        {
          "internalType": "string",
          "name": "_objectName",
          "type": "string"
        },
        {
          "internalType": "uint256",
          "name": "_w",
          "type": "uint256"
        },
        {
          "internalType": "uint256",
          "name": "_h",
          "type": "uint256"
        },
        {
          "internalType": "uint256",
          "name": "_d",
          "type": "uint256"
        },
        {
          "internalType": "uint256",
          "name": "_x",
          "type": "uint256"
        },
        {
          "internalType": "uint256",
          "name": "_y",
          "type": "uint256"
        },
        {
          "internalType": "uint256",
          "name": "_z",
          "type": "uint256"
        }
      ],
      "name": "mint",
      "outputs": [],
      "stateMutability": "payable",
      "type": "function"
    },
    {
      "inputs": [],
      "name": "name",
      "outputs": [
        {
          "internalType": "string",
          "name": "",
          "type": "string"
        }
      ],
      "stateMutability": "view",
      "type": "function"
    },
    {
      "inputs": [
        {
          "internalType": "uint256",
          "name": "",
          "type": "uint256"
        }
      ],
      "name": "objects",
      "outputs": [
        {
          "internalType": "string",
          "name": "name",
          "type": "string"
        },
        {
          "internalType": "uint256",
          "name": "w",
          "type": "uint256"
        },
        {
          "internalType": "uint256",
          "name": "h",
          "type": "uint256"
        },
        {
          "internalType": "uint256",
          "name": "d",
          "type": "uint256"
        },
        {
          "internalType": "uint256",
          "name": "x",
          "type": "uint256"
        },
        {
          "internalType": "uint256",
          "name": "y",
          "type": "uint256"
        },
        {
          "internalType": "uint256",
          "name": "z",
          "type": "uint256"
        }
      ],
      "stateMutability": "view",
      "type": "function"
    },
    {
      "inputs": [],
      "name": "owner",
      "outputs": [
        {
          "internalType": "address",
          "name": "",
          "type": "address"
        }
      ],
      "stateMutability": "view",
      "type": "function"
    },
    {
      "inputs": [
        {
          "internalType": "uint256",
          "name": "tokenId",
          "type": "uint256"
        }
      ],
      "name": "ownerOf",
      "outputs": [
        {
          "internalType": "address",
          "name": "",
          "type": "address"
        }
      ],
      "stateMutability": "view",
      "type": "function"
    },
    {
      "inputs": [],
      "name": "renounceOwnership",
      "outputs": [],
      "stateMutability": "nonpayable",
      "type": "function"
    },
    {
      "inputs": [
        {
          "internalType": "address",
          "name": "from",
          "type": "address"
        },
        {
          "internalType": "address",
          "name": "to",
          "type": "address"
        },
        {
          "internalType": "uint256",
          "name": "tokenId",
          "type": "uint256"
        }
      ],
      "name": "safeTransferFrom",
      "outputs": [],
      "stateMutability": "nonpayable",
      "type": "function"
    },
    {
      "inputs": [
        {
          "internalType": "address",
          "name": "from",
          "type": "address"
        },
        {
          "internalType": "address",
          "name": "to",
          "type": "address"
        },
        {
          "internalType": "uint256",
          "name": "tokenId",
          "type": "uint256"
        },
        {
          "internalType": "bytes",
          "name": "data",
          "type": "bytes"
        }
      ],
      "name": "safeTransferFrom",
      "outputs": [],
      "stateMutability": "nonpayable",
      "type": "function"
    },
    {
      "inputs": [
        {
          "internalType": "address",
          "name": "operator",
          "type": "address"
        },
        {
          "internalType": "bool",
          "name": "approved",
          "type": "bool"
        }
      ],
      "name": "setApprovalForAll",
      "outputs": [],
      "stateMutability": "nonpayable",
      "type": "function"
    },
    {
      "inputs": [
        {
          "internalType": "bytes4",
          "name": "interfaceId",
          "type": "bytes4"
        }
      ],
      "name": "supportsInterface",
      "outputs": [
        {
          "internalType": "bool",
          "name": "",
          "type": "bool"
        }
      ],
      "stateMutability": "view",
      "type": "function"
    },
    {
      "inputs": [],
      "name": "symbol",
      "outputs": [
        {
          "internalType": "string",
          "name": "",
          "type": "string"
        }
      ],
      "stateMutability": "view",
      "type": "function"
    },
    {
      "inputs": [
        {
          "internalType": "uint256",
          "name": "tokenId",
          "type": "uint256"
        }
      ],
      "name": "tokenURI",
      "outputs": [
        {
          "internalType": "string",
          "name": "",
          "type": "string"
        }
      ],
      "stateMutability": "view",
      "type": "function"
    },
    {
      "inputs": [],
      "name": "totalSupply",
      "outputs": [
        {
          "internalType": "uint256",
          "name": "",
          "type": "uint256"
        }
      ],
      "stateMutability": "view",
      "type": "function"
    },
    {
      "inputs": [
        {
          "internalType": "address",
          "name": "from",
          "type": "address"
        },
        {
          "internalType": "address",
          "name": "to",
          "type": "address"
        },
        {
          "internalType": "uint256",
          "name": "tokenId",
          "type": "uint256"
        }
      ],
      "name": "transferFrom",
      "outputs": [],
      "stateMutability": "nonpayable",
      "type": "function"
    },
    {
      "inputs": [
        {
          "internalType": "address",
          "name": "newOwner",
          "type": "address"
        }
      ],
      "name": "transferOwnership",
      "outputs": [],
      "stateMutability": "nonpayable",
      "type": "function"
    },
    {
      "inputs": [],
      "name": "withdraw",
      "outputs": [],
      "stateMutability": "payable",
      "type": "function"
    }
  ],
  "transactionHash": "0xda2cffda5945f7dc414e3fe92446768ecdbef05abf9cd0de05937facfaf4fde0",
  "args": [],
  "numDeployments": 1,
  "solcInputHash": "e59464c082404048c8cceff7191e80ba",
  "bytecode": "0x60806040526064600855600a6009553480156200001b57600080fd5b506040518060400160405280600481526020017f4d455441000000000000000000000000000000000000000000000000000000008152506040518060400160405280600281526020017f4d540000000000000000000000000000000000000000000000000000000000008152508160009080519060200190620000a0929190620001b0565b508060019080519060200190620000b9929190620001b0565b505050620000dc620000d0620000e260201b60201c565b620000ea60201b60201c565b620002c5565b600033905090565b6000600660009054906101000a900473ffffffffffffffffffffffffffffffffffffffff16905081600660006101000a81548173ffffffffffffffffffffffffffffffffffffffff021916908373ffffffffffffffffffffffffffffffffffffffff1602179055508173ffffffffffffffffffffffffffffffffffffffff168173ffffffffffffffffffffffffffffffffffffffff167f8be0079c531659141344cd1fd0a4f28419497f9722a3daafe3b4186f6b6457e060405160405180910390a35050565b828054620001be906200028f565b90600052602060002090601f016020900481019282620001e257600085556200022e565b82601f10620001fd57805160ff19168380011785556200022e565b828001600101855582156200022e579182015b828111156200022d57825182559160200191906001019062000210565b5b5090506200023d919062000241565b5090565b5b808211156200025c57600081600090555060010162000242565b5090565b7f4e487b7100000000000000000000000000000000000000000000000000000000600052602260045260246000fd5b60006002820490506001821680620002a857607f821691505b60208210811415620002bf57620002be62000260565b5b50919050565b6135c580620002d56000396000f3fe6080604052600436106101405760003560e01c806370a08231116100b6578063b88d4fde1161006f578063b88d4fde1461041c578063c87b56dd14610445578063d5abeb0114610482578063e985e9c5146104ad578063ed175850146104ea578063f2fde38b1461052d57610140565b806370a082311461032d578063715018a61461036a5780638844cb5d146103815780638da5cb5b1461039d57806395d89b41146103c8578063a22cb465146103f357610140565b806318160ddd1161010857806318160ddd1461023e57806323b872dd146102695780633ccfd60b1461029257806342842e0e1461029c5780636352211e146102c5578063640784be1461030257610140565b806301ffc9a71461014557806306fdde0314610182578063081812fc146101ad578063095ea7b3146101ea5780631665ff7c14610213575b600080fd5b34801561015157600080fd5b5061016c60048036038101906101679190612333565b610556565b604051610179919061237b565b60405180910390f35b34801561018e57600080fd5b50610197610638565b6040516101a4919061242f565b60405180910390f35b3480156101b957600080fd5b506101d460048036038101906101cf9190612487565b6106ca565b6040516101e191906124f5565b60405180910390f35b3480156101f657600080fd5b50610211600480360381019061020c919061253c565b610710565b005b34801561021f57600080fd5b50610228610828565b6040516102359190612733565b60405180910390f35b34801561024a57600080fd5b50610253610955565b6040516102609190612764565b60405180910390f35b34801561027557600080fd5b50610290600480360381019061028b919061277f565b610966565b005b61029a6109c6565b005b3480156102a857600080fd5b506102c360048036038101906102be919061277f565b610a24565b005b3480156102d157600080fd5b506102ec60048036038101906102e79190612487565b610a44565b6040516102f991906124f5565b60405180910390f35b34801561030e57600080fd5b50610317610acb565b6040516103249190612733565b60405180910390f35b34801561033957600080fd5b50610354600480360381019061034f91906127d2565b610c35565b6040516103619190612764565b60405180910390f35b34801561037657600080fd5b5061037f610ced565b005b61039b60048036038101906103969190612934565b610d01565b005b3480156103a957600080fd5b506103b2610f3d565b6040516103bf91906124f5565b60405180910390f35b3480156103d457600080fd5b506103dd610f67565b6040516103ea919061242f565b60405180910390f35b3480156103ff57600080fd5b5061041a60048036038101906104159190612a1e565b610ff9565b005b34801561042857600080fd5b50610443600480360381019061043e9190612aff565b61100f565b005b34801561045157600080fd5b5061046c60048036038101906104679190612487565b611071565b604051610479919061242f565b60405180910390f35b34801561048e57600080fd5b506104976110d9565b6040516104a49190612764565b60405180910390f35b3480156104b957600080fd5b506104d460048036038101906104cf9190612b82565b6110df565b6040516104e1919061237b565b60405180910390f35b3480156104f657600080fd5b50610511600480360381019061050c9190612487565b611173565b6040516105249796959493929190612bc2565b60405180910390f35b34801561053957600080fd5b50610554600480360381019061054f91906127d2565b61124d565b005b60007f80ac58cd000000000000000000000000000000000000000000000000000000007bffffffffffffffffffffffffffffffffffffffffffffffffffffffff1916827bffffffffffffffffffffffffffffffffffffffffffffffffffffffff1916148061062157507f5b5e139f000000000000000000000000000000000000000000000000000000007bffffffffffffffffffffffffffffffffffffffffffffffffffffffff1916827bffffffffffffffffffffffffffffffffffffffffffffffffffffffff1916145b806106315750610630826112d1565b5b9050919050565b60606000805461064790612c67565b80601f016020809104026020016040519081016040528092919081815260200182805461067390612c67565b80156106c05780601f10610695576101008083540402835291602001916106c0565b820191906000526020600020905b8154815290600101906020018083116106a357829003601f168201915b5050505050905090565b60006106d58261133b565b6004600083815260200190815260200160002060009054906101000a900473ffffffffffffffffffffffffffffffffffffffff169050919050565b600061071b82610a44565b90508073ffffffffffffffffffffffffffffffffffffffff168373ffffffffffffffffffffffffffffffffffffffff16141561078c576040517f08c379a000000000000000000000000000000000000000000000000000000000815260040161078390612d0b565b60405180910390fd5b8073ffffffffffffffffffffffffffffffffffffffff166107ab611386565b73ffffffffffffffffffffffffffffffffffffffff1614806107da57506107d9816107d4611386565b6110df565b5b610819576040517f08c379a000000000000000000000000000000000000000000000000000000000815260040161081090612d9d565b60405180910390fd5b610823838361138e565b505050565b6060600b805480602002602001604051908101604052809291908181526020016000905b8282101561094c57838290600052602060002090600702016040518060e001604052908160008201805461087f90612c67565b80601f01602080910402602001604051908101604052809291908181526020018280546108ab90612c67565b80156108f85780601f106108cd576101008083540402835291602001916108f8565b820191906000526020600020905b8154815290600101906020018083116108db57829003601f168201915b5050505050815260200160018201548152602001600282015481526020016003820154815260200160048201548152602001600582015481526020016006820154815250508152602001906001019061084c565b50505050905090565b60006109616007611447565b905090565b610977610971611386565b82611455565b6109b6576040517f08c379a00000000000000000000000000000000000000000000000000000000081526004016109ad90612e2f565b60405180910390fd5b6109c18383836114ea565b505050565b6109ce6117e4565b60006109d8610f3d565b90508073ffffffffffffffffffffffffffffffffffffffff166108fc479081150290604051600060405180830381858888f19350505050158015610a20573d6000803e3d6000fd5b5050565b610a3f8383836040518060200160405280600081525061100f565b505050565b600080610a5083611862565b9050600073ffffffffffffffffffffffffffffffffffffffff168173ffffffffffffffffffffffffffffffffffffffff161415610ac2576040517f08c379a0000000000000000000000000000000000000000000000000000000008152600401610ab990612e9b565b60405180910390fd5b80915050919050565b6060600a60003373ffffffffffffffffffffffffffffffffffffffff1673ffffffffffffffffffffffffffffffffffffffff168152602001908152602001600020805480602002602001604051908101604052809291908181526020016000905b82821015610c2c57838290600052602060002090600702016040518060e0016040529081600082018054610b5f90612c67565b80601f0160208091040260200160405190810160405280929190818152602001828054610b8b90612c67565b8015610bd85780601f10610bad57610100808354040283529160200191610bd8565b820191906000526020600020905b815481529060010190602001808311610bbb57829003601f168201915b50505050508152602001600182015481526020016002820154815260200160038201548152602001600482015481526020016005820154815260200160068201548152505081526020019060010190610b2c565b50505050905090565b60008073ffffffffffffffffffffffffffffffffffffffff168273ffffffffffffffffffffffffffffffffffffffff161415610ca6576040517f08c379a0000000000000000000000000000000000000000000000000000000008152600401610c9d90612f2d565b60405180910390fd5b600360008373ffffffffffffffffffffffffffffffffffffffff1673ffffffffffffffffffffffffffffffffffffffff168152602001908152602001600020549050919050565b610cf56117e4565b610cff600061189f565b565b600854610d0e6007611447565b1115610d4f576040517f08c379a0000000000000000000000000000000000000000000000000000000008152600401610d4690612f99565b60405180910390fd5b600954341015610d94576040517f08c379a0000000000000000000000000000000000000000000000000000000008152600401610d8b90613005565b60405180910390fd5b610d9e6007611965565b610db133610dac6007611447565b61197b565b60006040518060e00160405280898152602001888152602001878152602001868152602001858152602001848152602001838152509050600b8190806001815401808255809150506001900390600052602060002090600702016000909190919091506000820151816000019080519060200190610e30929190612224565b506020820151816001015560408201518160020155606082015181600301556080820151816004015560a0820151816005015560c082015181600601555050600a60003373ffffffffffffffffffffffffffffffffffffffff1673ffffffffffffffffffffffffffffffffffffffff1681526020019081526020016000208190806001815401808255809150506001900390600052602060002090600702016000909190919091506000820151816000019080519060200190610ef4929190612224565b506020820151816001015560408201518160020155606082015181600301556080820151816004015560a0820151816005015560c0820151816006015550505050505050505050565b6000600660009054906101000a900473ffffffffffffffffffffffffffffffffffffffff16905090565b606060018054610f7690612c67565b80601f0160208091040260200160405190810160405280929190818152602001828054610fa290612c67565b8015610fef5780601f10610fc457610100808354040283529160200191610fef565b820191906000526020600020905b815481529060010190602001808311610fd257829003601f168201915b5050505050905090565b61100b611004611386565b8383611999565b5050565b61102061101a611386565b83611455565b61105f576040517f08c379a000000000000000000000000000000000000000000000000000000000815260040161105690612e2f565b60405180910390fd5b61106b84848484611b06565b50505050565b606061107c8261133b565b6000611086611b62565b905060008151116110a657604051806020016040528060008152506110d1565b806110b084611b79565b6040516020016110c1929190613061565b6040516020818303038152906040525b915050919050565b60085481565b6000600560008473ffffffffffffffffffffffffffffffffffffffff1673ffffffffffffffffffffffffffffffffffffffff16815260200190815260200160002060008373ffffffffffffffffffffffffffffffffffffffff1673ffffffffffffffffffffffffffffffffffffffff16815260200190815260200160002060009054906101000a900460ff16905092915050565b600b818154811061118357600080fd5b90600052602060002090600702016000915090508060000180546111a690612c67565b80601f01602080910402602001604051908101604052809291908181526020018280546111d290612c67565b801561121f5780601f106111f45761010080835404028352916020019161121f565b820191906000526020600020905b81548152906001019060200180831161120257829003601f168201915b5050505050908060010154908060020154908060030154908060040154908060050154908060060154905087565b6112556117e4565b600073ffffffffffffffffffffffffffffffffffffffff168173ffffffffffffffffffffffffffffffffffffffff1614156112c5576040517f08c379a00000000000000000000000000000000000000000000000000000000081526004016112bc906130f7565b60405180910390fd5b6112ce8161189f565b50565b60007f01ffc9a7000000000000000000000000000000000000000000000000000000007bffffffffffffffffffffffffffffffffffffffffffffffffffffffff1916827bffffffffffffffffffffffffffffffffffffffffffffffffffffffff1916149050919050565b61134481611c51565b611383576040517f08c379a000000000000000000000000000000000000000000000000000000000815260040161137a90612e9b565b60405180910390fd5b50565b600033905090565b816004600083815260200190815260200160002060006101000a81548173ffffffffffffffffffffffffffffffffffffffff021916908373ffffffffffffffffffffffffffffffffffffffff160217905550808273ffffffffffffffffffffffffffffffffffffffff1661140183610a44565b73ffffffffffffffffffffffffffffffffffffffff167f8c5be1e5ebec7d5bd14f71427d1e84f3dd0314c0f7b2291e5b200ac8c7c3b92560405160405180910390a45050565b600081600001549050919050565b60008061146183610a44565b90508073ffffffffffffffffffffffffffffffffffffffff168473ffffffffffffffffffffffffffffffffffffffff1614806114a357506114a281856110df565b5b806114e157508373ffffffffffffffffffffffffffffffffffffffff166114c9846106ca565b73ffffffffffffffffffffffffffffffffffffffff16145b91505092915050565b8273ffffffffffffffffffffffffffffffffffffffff1661150a82610a44565b73ffffffffffffffffffffffffffffffffffffffff1614611560576040517f08c379a000000000000000000000000000000000000000000000000000000000815260040161155790613189565b60405180910390fd5b600073ffffffffffffffffffffffffffffffffffffffff168273ffffffffffffffffffffffffffffffffffffffff1614156115d0576040517f08c379a00000000000000000000000000000000000000000000000000000000081526004016115c79061321b565b60405180910390fd5b6115dd8383836001611c92565b8273ffffffffffffffffffffffffffffffffffffffff166115fd82610a44565b73ffffffffffffffffffffffffffffffffffffffff1614611653576040517f08c379a000000000000000000000000000000000000000000000000000000000815260040161164a90613189565b60405180910390fd5b6004600082815260200190815260200160002060006101000a81549073ffffffffffffffffffffffffffffffffffffffff02191690556001600360008573ffffffffffffffffffffffffffffffffffffffff1673ffffffffffffffffffffffffffffffffffffffff168152602001908152602001600020600082825403925050819055506001600360008473ffffffffffffffffffffffffffffffffffffffff1673ffffffffffffffffffffffffffffffffffffffff16815260200190815260200160002060008282540192505081905550816002600083815260200190815260200160002060006101000a81548173ffffffffffffffffffffffffffffffffffffffff021916908373ffffffffffffffffffffffffffffffffffffffff160217905550808273ffffffffffffffffffffffffffffffffffffffff168473ffffffffffffffffffffffffffffffffffffffff167fddf252ad1be2c89b69c2b068fc378daa952ba7f163c4a11628f55a4df523b3ef60405160405180910390a46117df8383836001611c98565b505050565b6117ec611386565b73ffffffffffffffffffffffffffffffffffffffff1661180a610f3d565b73ffffffffffffffffffffffffffffffffffffffff1614611860576040517f08c379a000000000000000000000000000000000000000000000000000000000815260040161185790613287565b60405180910390fd5b565b60006002600083815260200190815260200160002060009054906101000a900473ffffffffffffffffffffffffffffffffffffffff169050919050565b6000600660009054906101000a900473ffffffffffffffffffffffffffffffffffffffff16905081600660006101000a81548173ffffffffffffffffffffffffffffffffffffffff021916908373ffffffffffffffffffffffffffffffffffffffff1602179055508173ffffffffffffffffffffffffffffffffffffffff168173ffffffffffffffffffffffffffffffffffffffff167f8be0079c531659141344cd1fd0a4f28419497f9722a3daafe3b4186f6b6457e060405160405180910390a35050565b6001816000016000828254019250508190555050565b611995828260405180602001604052806000815250611c9e565b5050565b8173ffffffffffffffffffffffffffffffffffffffff168373ffffffffffffffffffffffffffffffffffffffff161415611a08576040517f08c379a00000000000000000000000000000000000000000000000000000000081526004016119ff906132f3565b60405180910390fd5b80600560008573ffffffffffffffffffffffffffffffffffffffff1673ffffffffffffffffffffffffffffffffffffffff16815260200190815260200160002060008473ffffffffffffffffffffffffffffffffffffffff1673ffffffffffffffffffffffffffffffffffffffff16815260200190815260200160002060006101000a81548160ff0219169083151502179055508173ffffffffffffffffffffffffffffffffffffffff168373ffffffffffffffffffffffffffffffffffffffff167f17307eab39ab6107e8899845ad3d59bd9653f200f220920489ca2b5937696c3183604051611af9919061237b565b60405180910390a3505050565b611b118484846114ea565b611b1d84848484611cf9565b611b5c576040517f08c379a0000000000000000000000000000000000000000000000000000000008152600401611b5390613385565b60405180910390fd5b50505050565b606060405180602001604052806000815250905090565b606060006001611b8884611e90565b01905060008167ffffffffffffffff811115611ba757611ba6612809565b5b6040519080825280601f01601f191660200182016040528015611bd95781602001600182028036833780820191505090505b509050600082602001820190505b600115611c46578080600190039150507f3031323334353637383961626364656600000000000000000000000000000000600a86061a8153600a8581611c3057611c2f6133a5565b5b0494506000851415611c4157611c46565b611be7565b819350505050919050565b60008073ffffffffffffffffffffffffffffffffffffffff16611c7383611862565b73ffffffffffffffffffffffffffffffffffffffff1614159050919050565b50505050565b50505050565b611ca88383611fe3565b611cb56000848484611cf9565b611cf4576040517f08c379a0000000000000000000000000000000000000000000000000000000008152600401611ceb90613385565b60405180910390fd5b505050565b6000611d1a8473ffffffffffffffffffffffffffffffffffffffff16612201565b15611e83578373ffffffffffffffffffffffffffffffffffffffff1663150b7a02611d43611386565b8786866040518563ffffffff1660e01b8152600401611d659493929190613429565b602060405180830381600087803b158015611d7f57600080fd5b505af1925050508015611db057506040513d601f19601f82011682018060405250810190611dad919061348a565b60015b611e33573d8060008114611de0576040519150601f19603f3d011682016040523d82523d6000602084013e611de5565b606091505b50600081511415611e2b576040517f08c379a0000000000000000000000000000000000000000000000000000000008152600401611e2290613385565b60405180910390fd5b805181602001fd5b63150b7a0260e01b7bffffffffffffffffffffffffffffffffffffffffffffffffffffffff1916817bffffffffffffffffffffffffffffffffffffffffffffffffffffffff191614915050611e88565b600190505b949350505050565b600080600090507a184f03e93ff9f4daa797ed6e38ed64bf6a1f0100000000000000008310611eee577a184f03e93ff9f4daa797ed6e38ed64bf6a1f0100000000000000008381611ee457611ee36133a5565b5b0492506040810190505b6d04ee2d6d415b85acef81000000008310611f2b576d04ee2d6d415b85acef81000000008381611f2157611f206133a5565b5b0492506020810190505b662386f26fc100008310611f5a57662386f26fc100008381611f5057611f4f6133a5565b5b0492506010810190505b6305f5e1008310611f83576305f5e1008381611f7957611f786133a5565b5b0492506008810190505b6127108310611fa8576127108381611f9e57611f9d6133a5565b5b0492506004810190505b60648310611fcb5760648381611fc157611fc06133a5565b5b0492506002810190505b600a8310611fda576001810190505b80915050919050565b600073ffffffffffffffffffffffffffffffffffffffff168273ffffffffffffffffffffffffffffffffffffffff161415612053576040517f08c379a000000000000000000000000000000000000000000000000000000000815260040161204a90613503565b60405180910390fd5b61205c81611c51565b1561209c576040517f08c379a00000000000000000000000000000000000000000000000000000000081526004016120939061356f565b60405180910390fd5b6120aa600083836001611c92565b6120b381611c51565b156120f3576040517f08c379a00000000000000000000000000000000000000000000000000000000081526004016120ea9061356f565b60405180910390fd5b6001600360008473ffffffffffffffffffffffffffffffffffffffff1673ffffffffffffffffffffffffffffffffffffffff16815260200190815260200160002060008282540192505081905550816002600083815260200190815260200160002060006101000a81548173ffffffffffffffffffffffffffffffffffffffff021916908373ffffffffffffffffffffffffffffffffffffffff160217905550808273ffffffffffffffffffffffffffffffffffffffff16600073ffffffffffffffffffffffffffffffffffffffff167fddf252ad1be2c89b69c2b068fc378daa952ba7f163c4a11628f55a4df523b3ef60405160405180910390a46121fd600083836001611c98565b5050565b6000808273ffffffffffffffffffffffffffffffffffffffff163b119050919050565b82805461223090612c67565b90600052602060002090601f0160209004810192826122525760008555612299565b82601f1061226b57805160ff1916838001178555612299565b82800160010185558215612299579182015b8281111561229857825182559160200191906001019061227d565b5b5090506122a691906122aa565b5090565b5b808211156122c35760008160009055506001016122ab565b5090565b6000604051905090565b600080fd5b600080fd5b60007fffffffff0000000000000000000000000000000000000000000000000000000082169050919050565b612310816122db565b811461231b57600080fd5b50565b60008135905061232d81612307565b92915050565b600060208284031215612349576123486122d1565b5b60006123578482850161231e565b91505092915050565b60008115159050919050565b61237581612360565b82525050565b6000602082019050612390600083018461236c565b92915050565b600081519050919050565b600082825260208201905092915050565b60005b838110156123d05780820151818401526020810190506123b5565b838111156123df576000848401525b50505050565b6000601f19601f8301169050919050565b600061240182612396565b61240b81856123a1565b935061241b8185602086016123b2565b612424816123e5565b840191505092915050565b6000602082019050818103600083015261244981846123f6565b905092915050565b6000819050919050565b61246481612451565b811461246f57600080fd5b50565b6000813590506124818161245b565b92915050565b60006020828403121561249d5761249c6122d1565b5b60006124ab84828501612472565b91505092915050565b600073ffffffffffffffffffffffffffffffffffffffff82169050919050565b60006124df826124b4565b9050919050565b6124ef816124d4565b82525050565b600060208201905061250a60008301846124e6565b92915050565b612519816124d4565b811461252457600080fd5b50565b60008135905061253681612510565b92915050565b60008060408385031215612553576125526122d1565b5b600061256185828601612527565b925050602061257285828601612472565b9150509250929050565b600081519050919050565b600082825260208201905092915050565b6000819050602082019050919050565b600082825260208201905092915050565b60006125c482612396565b6125ce81856125a8565b93506125de8185602086016123b2565b6125e7816123e5565b840191505092915050565b6125fb81612451565b82525050565b600060e083016000830151848203600086015261261e82826125b9565b915050602083015161263360208601826125f2565b50604083015161264660408601826125f2565b50606083015161265960608601826125f2565b50608083015161266c60808601826125f2565b5060a083015161267f60a08601826125f2565b5060c083015161269260c08601826125f2565b508091505092915050565b60006126a98383612601565b905092915050565b6000602082019050919050565b60006126c98261257c565b6126d38185612587565b9350836020820285016126e585612598565b8060005b858110156127215784840389528151612702858261269d565b945061270d836126b1565b925060208a019950506001810190506126e9565b50829750879550505050505092915050565b6000602082019050818103600083015261274d81846126be565b905092915050565b61275e81612451565b82525050565b60006020820190506127796000830184612755565b92915050565b600080600060608486031215612798576127976122d1565b5b60006127a686828701612527565b93505060206127b786828701612527565b92505060406127c886828701612472565b9150509250925092565b6000602082840312156127e8576127e76122d1565b5b60006127f684828501612527565b91505092915050565b600080fd5b600080fd5b7f4e487b7100000000000000000000000000000000000000000000000000000000600052604160045260246000fd5b612841826123e5565b810181811067ffffffffffffffff821117156128605761285f612809565b5b80604052505050565b60006128736122c7565b905061287f8282612838565b919050565b600067ffffffffffffffff82111561289f5761289e612809565b5b6128a8826123e5565b9050602081019050919050565b82818337600083830152505050565b60006128d76128d284612884565b612869565b9050828152602081018484840111156128f3576128f2612804565b5b6128fe8482856128b5565b509392505050565b600082601f83011261291b5761291a6127ff565b5b813561292b8482602086016128c4565b91505092915050565b600080600080600080600060e0888a031215612953576129526122d1565b5b600088013567ffffffffffffffff811115612971576129706122d6565b5b61297d8a828b01612906565b975050602061298e8a828b01612472565b965050604061299f8a828b01612472565b95505060606129b08a828b01612472565b94505060806129c18a828b01612472565b93505060a06129d28a828b01612472565b92505060c06129e38a828b01612472565b91505092959891949750929550565b6129fb81612360565b8114612a0657600080fd5b50565b600081359050612a18816129f2565b92915050565b60008060408385031215612a3557612a346122d1565b5b6000612a4385828601612527565b9250506020612a5485828601612a09565b9150509250929050565b600067ffffffffffffffff821115612a7957612a78612809565b5b612a82826123e5565b9050602081019050919050565b6000612aa2612a9d84612a5e565b612869565b905082815260208101848484011115612abe57612abd612804565b5b612ac98482856128b5565b509392505050565b600082601f830112612ae657612ae56127ff565b5b8135612af6848260208601612a8f565b91505092915050565b60008060008060808587031215612b1957612b186122d1565b5b6000612b2787828801612527565b9450506020612b3887828801612527565b9350506040612b4987828801612472565b925050606085013567ffffffffffffffff811115612b6a57612b696122d6565b5b612b7687828801612ad1565b91505092959194509250565b60008060408385031215612b9957612b986122d1565b5b6000612ba785828601612527565b9250506020612bb885828601612527565b9150509250929050565b600060e0820190508181036000830152612bdc818a6123f6565b9050612beb6020830189612755565b612bf86040830188612755565b612c056060830187612755565b612c126080830186612755565b612c1f60a0830185612755565b612c2c60c0830184612755565b98975050505050505050565b7f4e487b7100000000000000000000000000000000000000000000000000000000600052602260045260246000fd5b60006002820490506001821680612c7f57607f821691505b60208210811415612c9357612c92612c38565b5b50919050565b7f4552433732313a20617070726f76616c20746f2063757272656e74206f776e6560008201527f7200000000000000000000000000000000000000000000000000000000000000602082015250565b6000612cf56021836123a1565b9150612d0082612c99565b604082019050919050565b60006020820190508181036000830152612d2481612ce8565b9050919050565b7f4552433732313a20617070726f76652063616c6c6572206973206e6f7420746f60008201527f6b656e206f776e6572206f7220617070726f76656420666f7220616c6c000000602082015250565b6000612d87603d836123a1565b9150612d9282612d2b565b604082019050919050565b60006020820190508181036000830152612db681612d7a565b9050919050565b7f4552433732313a2063616c6c6572206973206e6f7420746f6b656e206f776e6560008201527f72206f7220617070726f76656400000000000000000000000000000000000000602082015250565b6000612e19602d836123a1565b9150612e2482612dbd565b604082019050919050565b60006020820190508181036000830152612e4881612e0c565b9050919050565b7f4552433732313a20696e76616c696420746f6b656e2049440000000000000000600082015250565b6000612e856018836123a1565b9150612e9082612e4f565b602082019050919050565b60006020820190508181036000830152612eb481612e78565b9050919050565b7f4552433732313a2061646472657373207a65726f206973206e6f74206120766160008201527f6c6964206f776e65720000000000000000000000000000000000000000000000602082015250565b6000612f176029836123a1565b9150612f2282612ebb565b604082019050919050565b60006020820190508181036000830152612f4681612f0a565b9050919050565b7f737570706c792065786365656473206d617820737570706c7900000000000000600082015250565b6000612f836019836123a1565b9150612f8e82612f4d565b602082019050919050565b60006020820190508181036000830152612fb281612f76565b9050919050565b7f696e73756666696369656e74207061796d656e74000000000000000000000000600082015250565b6000612fef6014836123a1565b9150612ffa82612fb9565b602082019050919050565b6000602082019050818103600083015261301e81612fe2565b9050919050565b600081905092915050565b600061303b82612396565b6130458185613025565b93506130558185602086016123b2565b80840191505092915050565b600061306d8285613030565b91506130798284613030565b91508190509392505050565b7f4f776e61626c653a206e6577206f776e657220697320746865207a65726f206160008201527f6464726573730000000000000000000000000000000000000000000000000000602082015250565b60006130e16026836123a1565b91506130ec82613085565b604082019050919050565b60006020820190508181036000830152613110816130d4565b9050919050565b7f4552433732313a207472616e736665722066726f6d20696e636f72726563742060008201527f6f776e6572000000000000000000000000000000000000000000000000000000602082015250565b60006131736025836123a1565b915061317e82613117565b604082019050919050565b600060208201905081810360008301526131a281613166565b9050919050565b7f4552433732313a207472616e7366657220746f20746865207a65726f2061646460008201527f7265737300000000000000000000000000000000000000000000000000000000602082015250565b60006132056024836123a1565b9150613210826131a9565b604082019050919050565b60006020820190508181036000830152613234816131f8565b9050919050565b7f4f776e61626c653a2063616c6c6572206973206e6f7420746865206f776e6572600082015250565b60006132716020836123a1565b915061327c8261323b565b602082019050919050565b600060208201905081810360008301526132a081613264565b9050919050565b7f4552433732313a20617070726f766520746f2063616c6c657200000000000000600082015250565b60006132dd6019836123a1565b91506132e8826132a7565b602082019050919050565b6000602082019050818103600083015261330c816132d0565b9050919050565b7f4552433732313a207472616e7366657220746f206e6f6e20455243373231526560008201527f63656976657220696d706c656d656e7465720000000000000000000000000000602082015250565b600061336f6032836123a1565b915061337a82613313565b604082019050919050565b6000602082019050818103600083015261339e81613362565b9050919050565b7f4e487b7100000000000000000000000000000000000000000000000000000000600052601260045260246000fd5b600081519050919050565b600082825260208201905092915050565b60006133fb826133d4565b61340581856133df565b93506134158185602086016123b2565b61341e816123e5565b840191505092915050565b600060808201905061343e60008301876124e6565b61344b60208301866124e6565b6134586040830185612755565b818103606083015261346a81846133f0565b905095945050505050565b60008151905061348481612307565b92915050565b6000602082840312156134a05761349f6122d1565b5b60006134ae84828501613475565b91505092915050565b7f4552433732313a206d696e7420746f20746865207a65726f2061646472657373600082015250565b60006134ed6020836123a1565b91506134f8826134b7565b602082019050919050565b6000602082019050818103600083015261351c816134e0565b9050919050565b7f4552433732313a20746f6b656e20616c7265616479206d696e74656400000000600082015250565b6000613559601c836123a1565b915061356482613523565b602082019050919050565b600060208201905081810360008301526135888161354c565b905091905056fea2646970667358221220be767df34b9904bae60c76f8408bb87c4b820f17e5f7e74dacc2d58487af36e364736f6c63430008080033",
  "devdoc": {
    "kind": "dev",
    "methods": {
      "approve(address,uint256)": {
        "details": "See {IERC721-approve}."
      },
      "balanceOf(address)": {
        "details": "See {IERC721-balanceOf}."
      },
      "getApproved(uint256)": {
        "details": "See {IERC721-getApproved}."
      },
      "isApprovedForAll(address,address)": {
        "details": "See {IERC721-isApprovedForAll}."
      },
      "name()": {
        "details": "See {IERC721Metadata-name}."
      },
      "owner()": {
        "details": "Returns the address of the current owner."
      },
      "ownerOf(uint256)": {
        "details": "See {IERC721-ownerOf}."
      },
      "renounceOwnership()": {
        "details": "Leaves the contract without owner. It will not be possible to call `onlyOwner` functions anymore. Can only be called by the current owner. NOTE: Renouncing ownership will leave the contract without an owner, thereby removing any functionality that is only available to the owner."
      },
      "safeTransferFrom(address,address,uint256)": {
        "details": "See {IERC721-safeTransferFrom}."
      },
      "safeTransferFrom(address,address,uint256,bytes)": {
        "details": "See {IERC721-safeTransferFrom}."
      },
      "setApprovalForAll(address,bool)": {
        "details": "See {IERC721-setApprovalForAll}."
      },
      "supportsInterface(bytes4)": {
        "details": "See {IERC165-supportsInterface}."
      },
      "symbol()": {
        "details": "See {IERC721Metadata-symbol}."
      },
      "tokenURI(uint256)": {
        "details": "See {IERC721Metadata-tokenURI}."
      },
      "transferFrom(address,address,uint256)": {
        "details": "See {IERC721-transferFrom}."
      },
      "transferOwnership(address)": {
        "details": "Transfers ownership of the contract to a new account (`newOwner`). Can only be called by the current owner."
      }
    },
    "version": 1
  },
  "userdoc": {
    "kind": "user",
    "methods": {},
    "version": 1
  },
  "storageLayout": {
    "storage": [
      {
        "astId": 138,
        "contract": "contracts/metaverse.sol:metaverse",
        "label": "_name",
        "offset": 0,
        "slot": "0",
        "type": "t_string_storage"
      },
      {
        "astId": 140,
        "contract": "contracts/metaverse.sol:metaverse",
        "label": "_symbol",
        "offset": 0,
        "slot": "1",
        "type": "t_string_storage"
      },
      {
        "astId": 144,
        "contract": "contracts/metaverse.sol:metaverse",
        "label": "_owners",
        "offset": 0,
        "slot": "2",
        "type": "t_mapping(t_uint256,t_address)"
      },
      {
        "astId": 148,
        "contract": "contracts/metaverse.sol:metaverse",
        "label": "_balances",
        "offset": 0,
        "slot": "3",
        "type": "t_mapping(t_address,t_uint256)"
      },
      {
        "astId": 152,
        "contract": "contracts/metaverse.sol:metaverse",
        "label": "_tokenApprovals",
        "offset": 0,
        "slot": "4",
        "type": "t_mapping(t_uint256,t_address)"
      },
      {
        "astId": 158,
        "contract": "contracts/metaverse.sol:metaverse",
        "label": "_operatorApprovals",
        "offset": 0,
        "slot": "5",
        "type": "t_mapping(t_address,t_mapping(t_address,t_bool))"
      },
      {
        "astId": 7,
        "contract": "contracts/metaverse.sol:metaverse",
        "label": "_owner",
        "offset": 0,
        "slot": "6",
        "type": "t_address"
      },
      {
        "astId": 2726,
        "contract": "contracts/metaverse.sol:metaverse",
        "label": "supply",
        "offset": 0,
        "slot": "7",
        "type": "t_struct(Counter)1558_storage"
      },
      {
        "astId": 2729,
        "contract": "contracts/metaverse.sol:metaverse",
        "label": "maxSupply",
        "offset": 0,
        "slot": "8",
        "type": "t_uint256"
      },
      {
        "astId": 2732,
        "contract": "contracts/metaverse.sol:metaverse",
        "label": "cost",
        "offset": 0,
        "slot": "9",
        "type": "t_uint256"
      },
      {
        "astId": 2753,
        "contract": "contracts/metaverse.sol:metaverse",
        "label": "NFTowners",
        "offset": 0,
        "slot": "10",
        "type": "t_mapping(t_address,t_array(t_struct(object)2747_storage)dyn_storage)"
      },
      {
        "astId": 2757,
        "contract": "contracts/metaverse.sol:metaverse",
        "label": "objects",
        "offset": 0,
        "slot": "11",
        "type": "t_array(t_struct(object)2747_storage)dyn_storage"
      }
    ],
    "types": {
      "t_address": {
        "encoding": "inplace",
        "label": "address",
        "numberOfBytes": "20"
      },
      "t_array(t_struct(object)2747_storage)dyn_storage": {
        "base": "t_struct(object)2747_storage",
        "encoding": "dynamic_array",
        "label": "struct metaverse.object[]",
        "numberOfBytes": "32"
      },
      "t_bool": {
        "encoding": "inplace",
        "label": "bool",
        "numberOfBytes": "1"
      },
      "t_mapping(t_address,t_array(t_struct(object)2747_storage)dyn_storage)": {
        "encoding": "mapping",
        "key": "t_address",
        "label": "mapping(address => struct metaverse.object[])",
        "numberOfBytes": "32",
        "value": "t_array(t_struct(object)2747_storage)dyn_storage"
      },
      "t_mapping(t_address,t_bool)": {
        "encoding": "mapping",
        "key": "t_address",
        "label": "mapping(address => bool)",
        "numberOfBytes": "32",
        "value": "t_bool"
      },
      "t_mapping(t_address,t_mapping(t_address,t_bool))": {
        "encoding": "mapping",
        "key": "t_address",
        "label": "mapping(address => mapping(address => bool))",
        "numberOfBytes": "32",
        "value": "t_mapping(t_address,t_bool)"
      },
      "t_mapping(t_address,t_uint256)": {
        "encoding": "mapping",
        "key": "t_address",
        "label": "mapping(address => uint256)",
        "numberOfBytes": "32",
        "value": "t_uint256"
      },
      "t_mapping(t_uint256,t_address)": {
        "encoding": "mapping",
        "key": "t_uint256",
        "label": "mapping(uint256 => address)",
        "numberOfBytes": "32",
        "value": "t_address"
      },
      "t_string_storage": {
        "encoding": "bytes",
        "label": "string",
        "numberOfBytes": "32"
      },
      "t_struct(Counter)1558_storage": {
        "encoding": "inplace",
        "label": "struct Counters.Counter",
        "members": [
          {
            "astId": 1557,
            "contract": "contracts/metaverse.sol:metaverse",
            "label": "_value",
            "offset": 0,
            "slot": "0",
            "type": "t_uint256"
          }
        ],
        "numberOfBytes": "32"
      },
      "t_struct(object)2747_storage": {
        "encoding": "inplace",
        "label": "struct metaverse.object",
        "members": [
          {
            "astId": 2734,
            "contract": "contracts/metaverse.sol:metaverse",
            "label": "name",
            "offset": 0,
            "slot": "0",
            "type": "t_string_storage"
          },
          {
            "astId": 2736,
            "contract": "contracts/metaverse.sol:metaverse",
            "label": "w",
            "offset": 0,
            "slot": "1",
            "type": "t_uint256"
          },
          {
            "astId": 2738,
            "contract": "contracts/metaverse.sol:metaverse",
            "label": "h",
            "offset": 0,
            "slot": "2",
            "type": "t_uint256"
          },
          {
            "astId": 2740,
            "contract": "contracts/metaverse.sol:metaverse",
            "label": "d",
            "offset": 0,
            "slot": "3",
            "type": "t_uint256"
          },
          {
            "astId": 2742,
            "contract": "contracts/metaverse.sol:metaverse",
            "label": "x",
            "offset": 0,
            "slot": "4",
            "type": "t_uint256"
          },
          {
            "astId": 2744,
            "contract": "contracts/metaverse.sol:metaverse",
            "label": "y",
            "offset": 0,
            "slot": "5",
            "type": "t_uint256"
          },
          {
            "astId": 2746,
            "contract": "contracts/metaverse.sol:metaverse",
            "label": "z",
            "offset": 0,
            "slot": "6",
            "type": "t_uint256"
          }
        ],
        "numberOfBytes": "224"
      },
      "t_uint256": {
        "encoding": "inplace",
        "label": "uint256",
        "numberOfBytes": "32"
      }
    }
  }
}